{
  "_format": "hh-sol-artifact-1",
  "contractName": "TodoLists",
  "sourceName": "contracts/TodoList.sol",
  "abi": [
    {
      "stateMutability": "payable",
      "type": "fallback"
    },
    {
      "inputs": [
        {
          "internalType": "string",
          "name": "_id",
          "type": "string"
        }
      ],
      "name": "addList",
      "outputs": [],
      "stateMutability": "nonpayable",
      "type": "function"
    },
    {
      "inputs": [
        {
          "internalType": "string",
          "name": "listid",
          "type": "string"
        },
        {
          "internalType": "string",
          "name": "title",
          "type": "string"
        },
        {
          "internalType": "string",
          "name": "description",
          "type": "string"
        }
      ],
      "name": "addTodo",
      "outputs": [],
      "stateMutability": "nonpayable",
      "type": "function"
    },
    {
      "inputs": [
        {
          "internalType": "address",
          "name": "",
          "type": "address"
        },
        {
          "internalType": "uint256",
          "name": "",
          "type": "uint256"
        }
      ],
      "name": "address2ListIds",
      "outputs": [
        {
          "internalType": "string",
          "name": "",
          "type": "string"
        }
      ],
      "stateMutability": "view",
      "type": "function"
    },
    {
      "inputs": [
        {
          "internalType": "string",
          "name": "todoId",
          "type": "string"
        },
        {
          "internalType": "string",
          "name": "listid",
          "type": "string"
        }
      ],
      "name": "deleteTodo",
      "outputs": [],
      "stateMutability": "nonpayable",
      "type": "function"
    },
    {
      "inputs": [
        {
          "internalType": "address",
          "name": "user",
          "type": "address"
        }
      ],
      "name": "getTodos",
      "outputs": [
        {
          "components": [
            {
              "internalType": "string",
              "name": "id",
              "type": "string"
            },
            {
              "components": [
                {
                  "internalType": "string",
                  "name": "id",
                  "type": "string"
                },
                {
                  "internalType": "string",
                  "name": "title",
                  "type": "string"
                },
                {
                  "internalType": "string",
                  "name": "description",
                  "type": "string"
                },
                {
                  "internalType": "bool",
                  "name": "isDone",
                  "type": "bool"
                }
              ],
              "internalType": "struct TodoLists.TodoItem[]",
              "name": "todos",
              "type": "tuple[]"
            }
          ],
          "internalType": "struct TodoLists.TodoList[]",
          "name": "",
          "type": "tuple[]"
        }
      ],
      "stateMutability": "view",
      "type": "function"
    },
    {
      "inputs": [],
      "name": "getUserIds",
      "outputs": [
        {
          "internalType": "string[]",
          "name": "",
          "type": "string[]"
        }
      ],
      "stateMutability": "view",
      "type": "function"
    },
    {
      "inputs": [
        {
          "internalType": "string",
          "name": "",
          "type": "string"
        },
        {
          "internalType": "uint256",
          "name": "",
          "type": "uint256"
        }
      ],
      "name": "id2TodoItems",
      "outputs": [
        {
          "internalType": "string",
          "name": "id",
          "type": "string"
        },
        {
          "internalType": "string",
          "name": "title",
          "type": "string"
        },
        {
          "internalType": "string",
          "name": "description",
          "type": "string"
        },
        {
          "internalType": "bool",
          "name": "isDone",
          "type": "bool"
        }
      ],
      "stateMutability": "view",
      "type": "function"
    },
    {
      "inputs": [
        {
          "internalType": "uint256",
          "name": "",
          "type": "uint256"
        }
      ],
      "name": "listIds",
      "outputs": [
        {
          "internalType": "string",
          "name": "",
          "type": "string"
        }
      ],
      "stateMutability": "view",
      "type": "function"
    },
    {
      "inputs": [
        {
          "internalType": "string",
          "name": "",
          "type": "string"
        }
      ],
      "name": "listIds2exists",
      "outputs": [
        {
          "internalType": "bool",
          "name": "",
          "type": "bool"
        }
      ],
      "stateMutability": "view",
      "type": "function"
    },
    {
      "inputs": [
        {
          "internalType": "string",
          "name": "_id",
          "type": "string"
        }
      ],
      "name": "removeList",
      "outputs": [],
      "stateMutability": "nonpayable",
      "type": "function"
    },
    {
      "inputs": [],
      "name": "todoCnt",
      "outputs": [
        {
          "internalType": "uint256",
          "name": "",
          "type": "uint256"
        }
      ],
      "stateMutability": "view",
      "type": "function"
    },
    {
      "inputs": [
        {
          "internalType": "string",
          "name": "todoId",
          "type": "string"
        },
        {
          "internalType": "string",
          "name": "listid",
          "type": "string"
        },
        {
          "internalType": "string",
          "name": "title",
          "type": "string"
        },
        {
          "internalType": "string",
          "name": "description",
          "type": "string"
        }
      ],
      "name": "updateTodo",
      "outputs": [],
      "stateMutability": "nonpayable",
      "type": "function"
    },
    {
      "inputs": [
        {
          "internalType": "address",
          "name": "",
          "type": "address"
        }
      ],
      "name": "user2used",
      "outputs": [
        {
          "internalType": "bool",
          "name": "",
          "type": "bool"
        }
      ],
      "stateMutability": "view",
      "type": "function"
    },
    {
      "inputs": [
        {
          "internalType": "uint256",
          "name": "",
          "type": "uint256"
        }
      ],
      "name": "users",
      "outputs": [
        {
          "internalType": "address",
          "name": "",
          "type": "address"
        }
      ],
      "stateMutability": "view",
      "type": "function"
    },
    {
      "stateMutability": "payable",
      "type": "receive"
    }
  ],
  "bytecode": "0x6080604052600060035534801561001557600080fd5b50612fd2806100256000396000f3fe6080604052600436106100e15760003560e01c806380eda6ad1161007f578063b9cdbde911610059578063b9cdbde914610301578063da41e67a1461033e578063e01da11e14610367578063e9c36b0614610392576100e8565b806380eda6ad1461025b578063863ad5011461029b578063a6ecdc63146102d8576100e8565b8063365b98b2116100bb578063365b98b21461017b578063529900d5146101b85780635c10955d146101f55780636a73d9d11461021e576100e8565b806302209d96146100ea5780631b3b7e861461011357806324c91ac91461013e576100e8565b366100e857005b005b3480156100f657600080fd5b50610111600480360381019061010c9190611d3d565b6103bb565b005b34801561011f57600080fd5b50610128610658565b6040516101359190611d9f565b60405180910390f35b34801561014a57600080fd5b5061016560048036038101906101609190611de6565b61065e565b6040516101729190611e92565b60405180910390f35b34801561018757600080fd5b506101a2600480360381019061019d9190611de6565b61070a565b6040516101af9190611ef5565b60405180910390f35b3480156101c457600080fd5b506101df60048036038101906101da9190611f3c565b610749565b6040516101ec9190611f84565b60405180910390f35b34801561020157600080fd5b5061021c60048036038101906102179190611f9f565b610769565b005b34801561022a57600080fd5b5061024560048036038101906102409190612046565b6108d7565b6040516102529190611e92565b60405180910390f35b34801561026757600080fd5b50610282600480360381019061027d9190612086565b610990565b60405161029294939291906120e2565b60405180910390f35b3480156102a757600080fd5b506102c260048036038101906102bd9190611d3d565b610b98565b6040516102cf9190611f84565b60405180910390f35b3480156102e457600080fd5b506102ff60048036038101906102fa919061213c565b610bce565b005b34801561030d57600080fd5b5061032860048036038101906103239190611f3c565b610d67565b60405161033591906124a5565b60405180910390f35b34801561034a57600080fd5b5061036560048036038101906103609190611d3d565b611172565b005b34801561037357600080fd5b5061037c611626565b6040516103899190612589565b60405180910390f35b34801561039e57600080fd5b506103b960048036038101906103b491906125ab565b61173b565b005b600115156001826040516103cf919061265f565b908152602001604051809103902060009054906101000a900460ff1615150361042d576040517f08c379a0000000000000000000000000000000000000000000000000000000008152600401610424906126c2565b60405180910390fd5b6000803373ffffffffffffffffffffffffffffffffffffffff1673ffffffffffffffffffffffffffffffffffffffff1681526020019081526020016000208190806001815401808255809150506001900390600052602060002001600090919091909150908161049d91906128ee565b5060001515600260003373ffffffffffffffffffffffffffffffffffffffff1673ffffffffffffffffffffffffffffffffffffffff16815260200190815260200160002060009054906101000a900460ff161515036105b2576001600260003373ffffffffffffffffffffffffffffffffffffffff1673ffffffffffffffffffffffffffffffffffffffff16815260200190815260200160002060006101000a81548160ff0219169083151502179055506005339080600181540180825580915050600190039060005260206000200160009091909190916101000a81548173ffffffffffffffffffffffffffffffffffffffff021916908373ffffffffffffffffffffffffffffffffffffffff1602179055505b600015156001826040516105c6919061265f565b908152602001604051809103902060009054906101000a900460ff1615150361065557600180826040516105fa919061265f565b908152602001604051809103902060006101000a81548160ff02191690831515021790555060048190806001815401808255809150506001900390600052602060002001600090919091909150908161065391906128ee565b505b50565b60035481565b6004818154811061066e57600080fd5b90600052602060002001600091509050805461068990612711565b80601f01602080910402602001604051908101604052809291908181526020018280546106b590612711565b80156107025780601f106106d757610100808354040283529160200191610702565b820191906000526020600020905b8154815290600101906020018083116106e557829003601f168201915b505050505081565b6005818154811061071a57600080fd5b906000526020600020016000915054906101000a900473ffffffffffffffffffffffffffffffffffffffff1681565b60026020528060005260406000206000915054906101000a900460ff1681565b6000151560018460405161077d919061265f565b908152602001604051809103902060009054906101000a900460ff161515036107db576040517f08c379a00000000000000000000000000000000000000000000000000000000081526004016107d290612a0c565b60405180910390fd5b600060405180608001604052806107f36003546119e4565b81526020018481526020018381526020016000151581525090506003600081548092919061082090612a5b565b9190505550600684604051610835919061265f565b9081526020016040518091039020819080600181540180825580915050600190039060005260206000209060040201600090919091909150600082015181600001908161088291906128ee565b50602082015181600101908161089891906128ee565b5060408201518160020190816108ae91906128ee565b5060608201518160030160006101000a81548160ff021916908315150217905550505050505050565b600060205281600052604060002081815481106108f357600080fd5b9060005260206000200160009150915050805461090f90612711565b80601f016020809104026020016040519081016040528092919081815260200182805461093b90612711565b80156109885780601f1061095d57610100808354040283529160200191610988565b820191906000526020600020905b81548152906001019060200180831161096b57829003601f168201915b505050505081565b60068280516020810182018051848252602083016020850120818352809550505050505081815481106109c257600080fd5b9060005260206000209060040201600091509150508060000180546109e690612711565b80601f0160208091040260200160405190810160405280929190818152602001828054610a1290612711565b8015610a5f5780601f10610a3457610100808354040283529160200191610a5f565b820191906000526020600020905b815481529060010190602001808311610a4257829003601f168201915b505050505090806001018054610a7490612711565b80601f0160208091040260200160405190810160405280929190818152602001828054610aa090612711565b8015610aed5780601f10610ac257610100808354040283529160200191610aed565b820191906000526020600020905b815481529060010190602001808311610ad057829003601f168201915b505050505090806002018054610b0290612711565b80601f0160208091040260200160405190810160405280929190818152602001828054610b2e90612711565b8015610b7b5780601f10610b5057610100808354040283529160200191610b7b565b820191906000526020600020905b815481529060010190602001808311610b5e57829003601f168201915b5050505050908060030160009054906101000a900460ff16905084565b6001818051602081018201805184825260208301602085012081835280955050505050506000915054906101000a900460ff1681565b60001515600184604051610be2919061265f565b908152602001604051809103902060009054906101000a900460ff16151503610c40576040517f08c379a0000000000000000000000000000000000000000000000000000000008152600401610c3790612a0c565b60405180910390fd5b6000600684604051610c52919061265f565b9081526020016040518091039020905060005b8180549050811015610d5f5785604051602001610c82919061265f565b60405160208183030381529060405280519060200120828281548110610cab57610caa612aa3565b5b9060005260206000209060040201600001604051602001610ccc9190612b55565b6040516020818303038152906040528051906020012003610d4c5783828281548110610cfb57610cfa612aa3565b5b90600052602060002090600402016001019081610d1891906128ee565b5082828281548110610d2d57610d2c612aa3565b5b90600052602060002090600402016002019081610d4a91906128ee565b505b8080610d5790612a5b565b915050610c65565b505050505050565b606060008060008473ffffffffffffffffffffffffffffffffffffffff1673ffffffffffffffffffffffffffffffffffffffff16815260200190815260200160002090506000818054905067ffffffffffffffff811115610dcb57610dca611c12565b5b604051908082528060200260200182016040528015610e0457816020015b610df1611b6c565b815260200190600190039081610de95790505b50905060005b82805490508110156111675760006006848381548110610e2d57610e2c612aa3565b5b90600052602060002001604051610e449190612b55565b908152602001604051809103902090506040518060400160405280858481548110610e7257610e71612aa3565b5b906000526020600020018054610e8790612711565b80601f0160208091040260200160405190810160405280929190818152602001828054610eb390612711565b8015610f005780601f10610ed557610100808354040283529160200191610f00565b820191906000526020600020905b815481529060010190602001808311610ee357829003601f168201915b5050505050815260200182805480602002602001604051908101604052809291908181526020016000905b8282101561112e5783829060005260206000209060040201604051806080016040529081600082018054610f5e90612711565b80601f0160208091040260200160405190810160405280929190818152602001828054610f8a90612711565b8015610fd75780601f10610fac57610100808354040283529160200191610fd7565b820191906000526020600020905b815481529060010190602001808311610fba57829003601f168201915b50505050508152602001600182018054610ff090612711565b80601f016020809104026020016040519081016040528092919081815260200182805461101c90612711565b80156110695780601f1061103e57610100808354040283529160200191611069565b820191906000526020600020905b81548152906001019060200180831161104c57829003601f168201915b5050505050815260200160028201805461108290612711565b80601f01602080910402602001604051908101604052809291908181526020018280546110ae90612711565b80156110fb5780601f106110d0576101008083540402835291602001916110fb565b820191906000526020600020905b8154815290600101906020018083116110de57829003601f168201915b505050505081526020016003820160009054906101000a900460ff16151515158152505081526020019060010190610f2b565b5050505081525083838151811061114857611147612aa3565b5b602002602001018190525050808061115f90612a5b565b915050610e0a565b508092505050919050565b600260003373ffffffffffffffffffffffffffffffffffffffff1673ffffffffffffffffffffffffffffffffffffffff16815260200190815260200160002060009054906101000a900460ff166111fe576040517f08c379a00000000000000000000000000000000000000000000000000000000081526004016111f590612bb8565b60405180910390fd5b60008060003373ffffffffffffffffffffffffffffffffffffffff1673ffffffffffffffffffffffffffffffffffffffff168152602001908152602001600020905060005b81805490508110156116215782604051602001611260919061265f565b6040516020818303038152906040528051906020012082828154811061128957611288612aa3565b5b906000526020600020016040516020016112a39190612b55565b604051602081830303815290604052805190602001200361160e5781600183805490506112d09190612bd8565b815481106112e1576112e0612aa3565b5b906000526020600020018282815481106112fe576112fd612aa3565b5b9060005260206000200190816113149190612c37565b506000600684604051611327919061265f565b908152602001604051809103902090505b6000818054905011156113b8578080548061135657611355612d1f565b5b60019003818190600052602060002090600402016000808201600061137b9190611b86565b60018201600061138b9190611b86565b60028201600061139b9190611b86565b6003820160006101000a81549060ff021916905550509055611338565b828054806113c9576113c8612d1f565b5b6001900381819060005260206000200160006113e59190611b86565b905560008380549050036115d5576000600260003373ffffffffffffffffffffffffffffffffffffffff1673ffffffffffffffffffffffffffffffffffffffff16815260200190815260200160002060006101000a81548160ff02191690831515021790555060005b6005805490508110156115d3573373ffffffffffffffffffffffffffffffffffffffff166005828154811061148657611485612aa3565b5b9060005260206000200160009054906101000a900473ffffffffffffffffffffffffffffffffffffffff1673ffffffffffffffffffffffffffffffffffffffff16036115c057600560016005805490506114e09190612bd8565b815481106114f1576114f0612aa3565b5b9060005260206000200160009054906101000a900473ffffffffffffffffffffffffffffffffffffffff16600582815481106115305761152f612aa3565b5b9060005260206000200160006101000a81548173ffffffffffffffffffffffffffffffffffffffff021916908373ffffffffffffffffffffffffffffffffffffffff160217905550600580548061158a57611589612d1f565b5b6001900381819060005260206000200160006101000a81549073ffffffffffffffffffffffffffffffffffffffff021916905590555b80806115cb90612a5b565b91505061144e565b505b60006001856040516115e7919061265f565b908152602001604051809103902060006101000a81548160ff021916908315150217905550505b808061161990612a5b565b915050611243565b505050565b60606000803373ffffffffffffffffffffffffffffffffffffffff1673ffffffffffffffffffffffffffffffffffffffff168152602001908152602001600020805480602002602001604051908101604052809291908181526020016000905b828210156117325783829060005260206000200180546116a590612711565b80601f01602080910402602001604051908101604052809291908181526020018280546116d190612711565b801561171e5780601f106116f35761010080835404028352916020019161171e565b820191906000526020600020905b81548152906001019060200180831161170157829003601f168201915b505050505081526020019060010190611686565b50505050905090565b6000151560018260405161174f919061265f565b908152602001604051809103902060009054906101000a900460ff161515036117ad576040517f08c379a00000000000000000000000000000000000000000000000000000000081526004016117a490612a0c565b60405180910390fd5b60006006826040516117bf919061265f565b908152602001604051809103902090506000818054905003611816576040517f08c379a000000000000000000000000000000000000000000000000000000000815260040161180d90612d9a565b60405180910390fd5b60005b81805490508110156119de5783604051602001611836919061265f565b6040516020818303038152906040528051906020012082828154811061185f5761185e612aa3565b5b90600052602060002090600402016000016040516020016118809190612b55565b60405160208183030381529060405280519060200120036119cb5781600183805490506118ad9190612bd8565b815481106118be576118bd612aa3565b5b90600052602060002090600402018282815481106118df576118de612aa3565b5b9060005260206000209060040201600082018160000190816119019190612dd0565b50600182018160010190816119169190612dd0565b506002820181600201908161192b9190612dd0565b506003820160009054906101000a900460ff168160030160006101000a81548160ff0219169083151502179055509050508180548061196d5761196c612d1f565b5b6001900381819060005260206000209060040201600080820160006119929190611b86565b6001820160006119a29190611b86565b6002820160006119b29190611b86565b6003820160006101000a81549060ff0219169055505090555b80806119d690612a5b565b915050611819565b50505050565b606060008203611a2b576040518060400160405280600181526020017f30000000000000000000000000000000000000000000000000000000000000008152509050611b67565b600082905060005b60008214611a5d578080611a4690612a5b565b915050600a82611a569190612ee7565b9150611a33565b60008167ffffffffffffffff811115611a7957611a78611c12565b5b6040519080825280601f01601f191660200182016040528015611aab5781602001600182028036833780820191505090505b50905060008290505b60008614611b5f57600181611ac99190612bd8565b90506000600a8088611adb9190612ee7565b611ae59190612f18565b87611af09190612bd8565b6030611afc9190612f67565b905060008160f81b905080848481518110611b1a57611b19612aa3565b5b60200101907effffffffffffffffffffffffffffffffffffffffffffffffffffffffffffff1916908160001a905350600a88611b569190612ee7565b97505050611ab4565b819450505050505b919050565b604051806040016040528060608152602001606081525090565b508054611b9290612711565b6000825580601f10611ba45750611bc3565b601f016020900490600052602060002090810190611bc29190611bc6565b5b50565b5b80821115611bdf576000816000905550600101611bc7565b5090565b6000604051905090565b600080fd5b600080fd5b600080fd5b600080fd5b6000601f19601f8301169050919050565b7f4e487b7100000000000000000000000000000000000000000000000000000000600052604160045260246000fd5b611c4a82611c01565b810181811067ffffffffffffffff82111715611c6957611c68611c12565b5b80604052505050565b6000611c7c611be3565b9050611c888282611c41565b919050565b600067ffffffffffffffff821115611ca857611ca7611c12565b5b611cb182611c01565b9050602081019050919050565b82818337600083830152505050565b6000611ce0611cdb84611c8d565b611c72565b905082815260208101848484011115611cfc57611cfb611bfc565b5b611d07848285611cbe565b509392505050565b600082601f830112611d2457611d23611bf7565b5b8135611d34848260208601611ccd565b91505092915050565b600060208284031215611d5357611d52611bed565b5b600082013567ffffffffffffffff811115611d7157611d70611bf2565b5b611d7d84828501611d0f565b91505092915050565b6000819050919050565b611d9981611d86565b82525050565b6000602082019050611db46000830184611d90565b92915050565b611dc381611d86565b8114611dce57600080fd5b50565b600081359050611de081611dba565b92915050565b600060208284031215611dfc57611dfb611bed565b5b6000611e0a84828501611dd1565b91505092915050565b600081519050919050565b600082825260208201905092915050565b60005b83811015611e4d578082015181840152602081019050611e32565b60008484015250505050565b6000611e6482611e13565b611e6e8185611e1e565b9350611e7e818560208601611e2f565b611e8781611c01565b840191505092915050565b60006020820190508181036000830152611eac8184611e59565b905092915050565b600073ffffffffffffffffffffffffffffffffffffffff82169050919050565b6000611edf82611eb4565b9050919050565b611eef81611ed4565b82525050565b6000602082019050611f0a6000830184611ee6565b92915050565b611f1981611ed4565b8114611f2457600080fd5b50565b600081359050611f3681611f10565b92915050565b600060208284031215611f5257611f51611bed565b5b6000611f6084828501611f27565b91505092915050565b60008115159050919050565b611f7e81611f69565b82525050565b6000602082019050611f996000830184611f75565b92915050565b600080600060608486031215611fb857611fb7611bed565b5b600084013567ffffffffffffffff811115611fd657611fd5611bf2565b5b611fe286828701611d0f565b935050602084013567ffffffffffffffff81111561200357612002611bf2565b5b61200f86828701611d0f565b925050604084013567ffffffffffffffff8111156120305761202f611bf2565b5b61203c86828701611d0f565b9150509250925092565b6000806040838503121561205d5761205c611bed565b5b600061206b85828601611f27565b925050602061207c85828601611dd1565b9150509250929050565b6000806040838503121561209d5761209c611bed565b5b600083013567ffffffffffffffff8111156120bb576120ba611bf2565b5b6120c785828601611d0f565b92505060206120d885828601611dd1565b9150509250929050565b600060808201905081810360008301526120fc8187611e59565b905081810360208301526121108186611e59565b905081810360408301526121248185611e59565b90506121336060830184611f75565b95945050505050565b6000806000806080858703121561215657612155611bed565b5b600085013567ffffffffffffffff81111561217457612173611bf2565b5b61218087828801611d0f565b945050602085013567ffffffffffffffff8111156121a1576121a0611bf2565b5b6121ad87828801611d0f565b935050604085013567ffffffffffffffff8111156121ce576121cd611bf2565b5b6121da87828801611d0f565b925050606085013567ffffffffffffffff8111156121fb576121fa611bf2565b5b61220787828801611d0f565b91505092959194509250565b600081519050919050565b600082825260208201905092915050565b6000819050602082019050919050565b600082825260208201905092915050565b600061225b82611e13565b612265818561223f565b9350612275818560208601611e2f565b61227e81611c01565b840191505092915050565b600081519050919050565b600082825260208201905092915050565b6000819050602082019050919050565b6122be81611f69565b82525050565b600060808301600083015184820360008601526122e18282612250565b915050602083015184820360208601526122fb8282612250565b915050604083015184820360408601526123158282612250565b915050606083015161232a60608601826122b5565b508091505092915050565b600061234183836122c4565b905092915050565b6000602082019050919050565b600061236182612289565b61236b8185612294565b93508360208202850161237d856122a5565b8060005b858110156123b9578484038952815161239a8582612335565b94506123a583612349565b925060208a01995050600181019050612381565b50829750879550505050505092915050565b600060408301600083015184820360008601526123e88282612250565b915050602083015184820360208601526124028282612356565b9150508091505092915050565b600061241b83836123cb565b905092915050565b6000602082019050919050565b600061243b82612213565b612445818561221e565b9350836020820285016124578561222f565b8060005b858110156124935784840389528151612474858261240f565b945061247f83612423565b925060208a0199505060018101905061245b565b50829750879550505050505092915050565b600060208201905081810360008301526124bf8184612430565b905092915050565b600081519050919050565b600082825260208201905092915050565b6000819050602082019050919050565b60006124ff8383612250565b905092915050565b6000602082019050919050565b600061251f826124c7565b61252981856124d2565b93508360208202850161253b856124e3565b8060005b85811015612577578484038952815161255885826124f3565b945061256383612507565b925060208a0199505060018101905061253f565b50829750879550505050505092915050565b600060208201905081810360008301526125a38184612514565b905092915050565b600080604083850312156125c2576125c1611bed565b5b600083013567ffffffffffffffff8111156125e0576125df611bf2565b5b6125ec85828601611d0f565b925050602083013567ffffffffffffffff81111561260d5761260c611bf2565b5b61261985828601611d0f565b9150509250929050565b600081905092915050565b600061263982611e13565b6126438185612623565b9350612653818560208601611e2f565b80840191505092915050565b600061266b828461262e565b915081905092915050565b7f6c697374696420616c7265616479206578697374730000000000000000000000600082015250565b60006126ac601583611e1e565b91506126b782612676565b602082019050919050565b600060208201905081810360008301526126db8161269f565b9050919050565b7f4e487b7100000000000000000000000000000000000000000000000000000000600052602260045260246000fd5b6000600282049050600182168061272957607f821691505b60208210810361273c5761273b6126e2565b5b50919050565b60008190508160005260206000209050919050565b60006020601f8301049050919050565b600082821b905092915050565b6000600883026127a47fffffffffffffffffffffffffffffffffffffffffffffffffffffffffffffffff82612767565b6127ae8683612767565b95508019841693508086168417925050509392505050565b6000819050919050565b60006127eb6127e66127e184611d86565b6127c6565b611d86565b9050919050565b6000819050919050565b612805836127d0565b612819612811826127f2565b848454612774565b825550505050565b600090565b61282e612821565b6128398184846127fc565b505050565b5b8181101561285d57612852600082612826565b60018101905061283f565b5050565b601f8211156128a25761287381612742565b61287c84612757565b8101602085101561288b578190505b61289f61289785612757565b83018261283e565b50505b505050565b600082821c905092915050565b60006128c5600019846008026128a7565b1980831691505092915050565b60006128de83836128b4565b9150826002028217905092915050565b6128f782611e13565b67ffffffffffffffff8111156129105761290f611c12565b5b61291a8254612711565b612925828285612861565b600060209050601f8311600181146129585760008415612946578287015190505b61295085826128d2565b8655506129b8565b601f19841661296686612742565b60005b8281101561298e57848901518255600182019150602085019450602081019050612969565b868310156129ab57848901516129a7601f8916826128b4565b8355505b6001600288020188555050505b505050505050565b7f6c6973746964206e6f7420657869737473000000000000000000000000000000600082015250565b60006129f6601183611e1e565b9150612a01826129c0565b602082019050919050565b60006020820190508181036000830152612a25816129e9565b9050919050565b7f4e487b7100000000000000000000000000000000000000000000000000000000600052601160045260246000fd5b6000612a6682611d86565b91507fffffffffffffffffffffffffffffffffffffffffffffffffffffffffffffffff8203612a9857612a97612a2c565b5b600182019050919050565b7f4e487b7100000000000000000000000000000000000000000000000000000000600052603260045260246000fd5b60008154612adf81612711565b612ae98186612623565b94506001821660008114612b045760018114612b1957612b4c565b60ff1983168652811515820286019350612b4c565b612b2285612742565b60005b83811015612b4457815481890152600182019150602081019050612b25565b838801955050505b50505092915050565b6000612b618284612ad2565b915081905092915050565b7f55736572206e6576657220757365732074686973206170700000000000000000600082015250565b6000612ba2601883611e1e565b9150612bad82612b6c565b602082019050919050565b60006020820190508181036000830152612bd181612b95565b9050919050565b6000612be382611d86565b9150612bee83611d86565b9250828203905081811115612c0657612c05612a2c565b5b92915050565b600081549050612c1b81612711565b9050919050565b60008190508160005260206000209050919050565b818103612c45575050612d1d565b612c4e82612c0c565b67ffffffffffffffff811115612c6757612c66611c12565b5b612c718254612711565b612c7c828285612861565b6000601f831160018114612cab5760008415612c99578287015490505b612ca385826128d2565b865550612d16565b601f198416612cb987612c22565b9650612cc486612742565b60005b82811015612cec57848901548255600182019150600185019450602081019050612cc7565b86831015612d095784890154612d05601f8916826128b4565b8355505b6001600288020188555050505b5050505050505b565b7f4e487b7100000000000000000000000000000000000000000000000000000000600052603160045260246000fd5b7f746f646f7320697320656d707479000000000000000000000000000000000000600082015250565b6000612d84600e83611e1e565b9150612d8f82612d4e565b602082019050919050565b60006020820190508181036000830152612db381612d77565b9050919050565b600081549050612dc981612711565b9050919050565b818103612dde575050612eb6565b612de782612dba565b67ffffffffffffffff811115612e0057612dff611c12565b5b612e0a8254612711565b612e15828285612861565b6000601f831160018114612e445760008415612e32578287015490505b612e3c85826128d2565b865550612eaf565b601f198416612e5287612742565b9650612e5d86612742565b60005b82811015612e8557848901548255600182019150600185019450602081019050612e60565b86831015612ea25784890154612e9e601f8916826128b4565b8355505b6001600288020188555050505b5050505050505b565b7f4e487b7100000000000000000000000000000000000000000000000000000000600052601260045260246000fd5b6000612ef282611d86565b9150612efd83611d86565b925082612f0d57612f0c612eb8565b5b828204905092915050565b6000612f2382611d86565b9150612f2e83611d86565b9250828202612f3c81611d86565b91508282048414831517612f5357612f52612a2c565b5b5092915050565b600060ff82169050919050565b6000612f7282612f5a565b9150612f7d83612f5a565b9250828201905060ff811115612f9657612f95612a2c565b5b9291505056fea264697066735822122010a7d16b82f8766c3872909e4ff1daec3e471ea0e1cb499015526a20b12bde0264736f6c63430008120033",
  "linkReferences": {},
  "deployedLinkReferences": {}
}